S0100000467573736C2D30312E7372656379
S113000045C0000062C0000060C000005EC0000087
S11300105CC000005AC0000058C0000056C0000078
S113002054C0000052C0000050C000004EC0000088
S11300304CC000004AC0000048C0000046C0000098
S113004044C0000042C0000040C000003EC00000A8
S11300503CC000003AC0000038C0000036C00000B8
S113006034C0000032C0000030C000002EC00000C8
S11300702CC000002AC0000028C0000026C00000D8
S113008024C0000022C0000020C0000011241FBEB4
S1130090CFEFD0E1DEBFCDBF11E0A0E0B1E0EEEFE5
S11300A0FDE100E00BBF02C007900D92AE37B1072F
S11300B0D9F722E0AEE7B1E001C01D92A139B20741
S11300C0E1F70E94650D0C94FD0E9ACF98B39E7FC4
S11300D0892B88BB98B382E0982798BB98B389276B
S11300E088BB089598B384E0982798BB98B3892770
S11300F088BB0895CF92DF92EF92FF920F931F93E4
S1130100CF93DF937C01CFE0D0E001E010E0DD2469
S1130110D394C12C98010C2E02C0220F331F0A94D1
S1130120E2F72E213F218D2D232B09F48C2DCEDFD8
S1130130219780F7D7DFDF91CF911F910F91FF9027
S1130140EF90DF90CF900895CF93DF93C091EF01AC
S11301508091F001C817D1F0D0E0FE01EE0FFF1F2F
S1130160EC0FFD1FE154FE4F8081918199230CF027
S1130170C1DFCE0101968F709078992324F4019702
S1130180806F9F6F01968093EF0103C081E080939D
S1130190F101DF91CF910895803C58F4982F947F1A
S11301A0943B49F0807F803841F0803A41F082E00E
S11301B0089581E0089581E0089583E0089588E03A
S11301C00895CF92DF92EF92FF920F931F93CF93F4
S11301D0DF93D82FD62E7A01811107C0FA018081CE
S11301E081110AC08FEF9FEF69C0FA0180818111EC
S11301F002C0D15001C0D0E000E014E0CC24CA9485
S11302002DC0D150C8010E94F50EC82FC801019617
S11302100E94F50E2C2F30E0322F22278901082B63
S1130220C80182D7882381F001C0DC2DF7018081C9
S1130230882331F08D2F90E09195819591093EC0EE
S113024085E690E00E947A0BD11108C0F701808105
S1130250882321F081E090E00E947A0BD111D1CF64
S1130260F7018081811116C0DD2081F0E8012E960E
S1130270DA94DD2069F0DA94CE010E94F50E8CDF69
S1130280C80FD11DD110F7CFCE0118C0C80116C0B8
S1130290CE0114C0C8010E94F50EC82FC8010196F2
S11302A00E94F50E2C2F30E0322F22278901082BD3
S11302B0C8013AD78111B9CFDC2DD0CFDF91CF91CE
S11302C01F910F91FF90EF90DF90CF900895CF9200
S11302D0DF92EF92FF920F931F93CF93DF9300D09F
S11302E000D01F92CDB7DEB76B01811110C08FE42F
S11302F096E4A6E4B0E08A839B83AC83BD8320E0CC
S113030048E0BE016E5F7F4FC60120D718C0198236
S1130310AE014F5F5F4F60E054DF760128E0C20E0C
S1130320D11C8C010E5F1F4FC8010E94F50EF7010E
S113033081937F010F5F1F4FEC15FD05A9F70F9007
S11303400F900F900F900F90DF91CF911F910F910D
S1130350FF90EF90DF90CF900895CF92DF92EF92CD
S1130360FF920F931F93CF93DF93C091BE01EC2EA6
S1130370F12CF701EE0FFF1FEE0FFF1FEE0FFF1F13
S1130380E258FE4F8081882389F1F701EE0FFF1FA9
S1130390EE0FFF1FEE0FFF1FE258FE4FC180D28009
S11303A08601055F1F4FE701CC0FDD1FCC0FDD1F5A
S11303B0CC0FDD1FCD57DE4F8EE0C80ED11CC80117
S11303C00E94F50E89930F5F1F4F0C151D05B9F799
S11303D0F701EE0FFF1FEE0FFF1FEE0FFF1FE25896
S11303E0FE4F818192810E9692838183DF91CF911A
S11303F01F910F91FF90EF90DF90CF9008950F938E
S11304001F93CF93DF931F92CDB7DEB70EE711E0B2
S11304101092BE01F801138280831982AE014F5FEE
S11304205F4F60E0CEDEF801928381831092EF018A
S11304301092F00181E08093F10180E090E89093C4
S1130440C0018093BF0189DF0F90DF91CF911F918D
S11304500F9108952F923F924F925F926F927F92E5
S11304608F929F92AF92BF92CF92DF92EF92FF92C0
S11304700F931F93CF93DF93CDB7DEB729970FB6B2
S1130480F894DEBF0FBECDBFE090F001F12C8701E0
S11304900F5F1F4F0F701078112334F401501109AE
S11304A0006F1F6F0F5F1F4F8091EF0190E00817DF
S11304B0190709F491C34090BE01C42CD12CF60154
S11304C0EE0FFF1FEE0FFF1FEE0FFF1FE258FE4F50
S11304D03080311020C0C701880F991F8E0D9F1DD9
S11304E082589E4FFC01EF5BFF4F118210823296BF
S11304F08FEF80830093F0011127F801EE0FFF1FA7
S11305000E0F1F1FF801E154FE4F80E090E8918325
S1130510808380E072C3F601EE0FFF1FEE0FFF1F12
S1130520EE0FFF1FE258FE4FA180B280C5010E946A
S1130530F50E582E35014FEF641A740AC3019F70EB
S11305400E94F50E282E450152E0850E911CC4012F
S11305509F700E94F50E898755200CF020C3852DCD
S11305608C7090E09595879595958795252D2370AA
S113057030E056FE6FC0452D407342954F70A9F48C
S1130580B601660F771F660F771F660F771F6258D5
S11305907E4FFB01E80FF91F620F731F1481DB010B
S11305A014965C91510F548331C04130B9F4A601C3
S11305B0440F551F440F551F440F551F42585E4F9B
S11305C0FA01E80FF91FDA01A20FB31F9481149600
S11305D08C91989F902D112494832FC04230B1F4B4
S11305E0A601440F551F440F551F440F551F425871
S11305F05E4FFA01E80FF91FDA01A20FB31F8481DD
S113060014966C910E94A60D848317C04330A9F4FC
S1130610A601440F551F440F551F440F551F425840
S11306205E4FFA01E80FF91FDA01A20FB31F8481AC
S113063014966C910E94A60D9483F601EE0FFF1F91
S1130640EE0FFF1FEE0FFF1FE258FE4F7282618212
S113065080E0D3C255FEE0C154FE56C153FE14C11E
S113066052FE16C0F601EE0FFF1FEE0FFF1FEE0F36
S1130670FF1FE258FE4FDF01A20FB31F14968C91A7
S11306801497815014968C937282618280E0B5C273
S113069051FEBDC050FE1CC0F601EE0FFF1FEE0F51
S11306A0FF1FEE0FFF1FE258FE4F9282818283816B
S11306B0282209F493C2411004C087E690E00E9406
S11306C07A0BEEEBF1E080818150808380E095C26B
S11306D0222D2C7030E03595279535952795822D60
S11306E0837090E0622D62956F7091F4A601440FBF
S11306F0551F440F551F440F551F42585E4FFA01B2
S1130700E80FF91F7481FA01E20FF31F748345C0E7
S1130710613029F5F701EE0FFF1FEE0DFF1DE154C7
S1130720FE4FA601440F551F440F551F440F551F7C
S113073042585E4FDA01A20FB31F14962C9130E099
S1130740322F2227DA01A80FB91F14968C91790150
S1130750E80EF11CC7019F779183808335C0623016
S1130760E1F4D601AA0FBB1FAA0FBB1FAA0FBB1F20
S1130770A258BE4FAD01420F531FFA0124818A0FC4
S11307809B1FFC013481FA013483FC0124831296FB
S11307909C928E92119780E030C26330A9F4D60106
S11307A0AA0FBB1FAA0FBB1FAA0FBB1FA258BE4F85
S11307B0FD01E80FF91F84818195848312969C9230
S11307C08E92119780E019C2F601EE0FFF1FEE0F13
S11307D0FF1FEE0FFF1FE258FE4F928281826430AA
S11307E009F0FEC11C82AE014C5F5F4F60E0832DB7
S11307F0E8DCF601EE0FFF1FEE0FFF1FEE0FFF1FE9
S1130800E258FE4F92838183A8DD80E0F6C1F601B1
S1130810EE0FFF1FEE0FFF1FEE0FFF1FE258FE4FFC
S11308209282818250FE19C0F701EE0FFF1FEE0D78
S1130830FF1DEF53FE4F20820093F0011127F801B2
S1130840EE0FFF1F0E0F1F1FF801E154FE4F80E053
S113085090E89183808380E0D0C1222009F4C2C152
S11308601B82AE014D5F5F4F622D832DAADCF60122
S1130870EE0FFF1FEE0FFF1FEE0FFF1FE258FE4F9C
S11308809283818380E0B9C152FE2CC0F701EE0F40
S1130890FF1FEE0DFF1DAF014F535E4FD601AA0F90
S11308A0BB1FAA0FBB1FAA0FBB1FA258BE4F2A0F04
S11308B03B1FF9018481FA0180830093F001112721
S11308C0F801EE0FFF1F0E0F1F1FF801E154FE4F3A
S11308D080E090E89183808312967C926E921197C7
S11308E080E08BC1F601EE0FFF1FEE0FFF1FEE0F2E
S11308F0FF1FE258FE4FDF01A20FB31F14962C9284
S11309009282818280E079C1C50103969F700E9422
S1130910F50EF82EF7E04F1202C0811165C1C50132
S113092004969F700E94F50E8D83C50105969F70F5
S11309300E94F50E8E83C50106969F700E94F50EE7
S11309408F83C50107969F700E94F50E8887F60174
S1130950EE0FFF1FEE0FFF1FEE0FFF1FE258FE4FBB
S113096048E0A40EB11CB282A182FF2021F043947E
S11309704092BE0102C01092BE01A091BE010A2F96
S113098010E01A82AE014E5F5F4F6985822D19DC3B
S1130990D801AA0FBB1FAA0FBB1FAA0FBB1FFD01C3
S11309A0E258FE4F928381832082F382CD018E57D9
S11309B09E4F5C01FE013596AE01475F5F4F83E0B9
S11309C090E0652D70E08601000F111F000F111FCC
S11309D0000F111F02581E4F9B01082E02C03595AF
S11309E027950A94E2F720FF08C020812370D801DC
S11309F0A20FB11D14962C9101C02081D5012D9315
S1130A005D0101973196E417F50731F7E984E110A8
S1130A1001C0A3DC80E0F1C054FE59C0F601EE0F22
S1130A20FF1FEE0FFF1FEE0FFF1FE258FE4F9282D3
S1130A30818281110FC0F601EE0FFF1FEE0FFF1F21
S1130A40EE0FFF1FE258FE4FE20FF31F9481920D49
S1130A50948328C0813091F4F601EE0FFF1FEE0F4E
S1130A60FF1FEE0FFF1FE258FE4FE20FF31F8481BA
S1130A70829D202C1124248280E0BFC0823091F416
S1130A80F601EE0FFF1FEE0FFF1FEE0FFF1FE258E0
S1130A90FE4FE20FF31F8481622D0E94A60D848312
S1130AA080E0ABC0833009F0A1C0F601EE0FFF1F58
S1130AB0EE0FFF1FEE0FFF1FE258FE4FE20FF31F72
S1130AC08481622D0E94A60D948380E096C0F60175
S1130AD0EE0FFF1FEE0FFF1FEE0FFF1FE258FE4F3A
S1130AE043E0A40EB11CB282A182811107C0E20FBF
S1130AF0F31F84812816D9F180E07FC0813089F406
S1130B00C601880F991F880F991F880F991F825853
S1130B109E4FFC01E20FF31F8481281228C080E05D
S1130B206CC0823089F4C601880F991F880F991F01
S1130B30880F991F82589E4FFC01E20FF31F848196
S1130B408215A8F080E059C0833009F051C0C60175
S1130B50880F991F880F991F880F991F82589E4FDD
S1130B60FC01E20FF31F8481281608F043C01982A8
S1130B70AE014F5F5F4F6985832D23DBF601EE0FD6
S1130B80FF1FEE0FFF1FEE0FFF1FE258FE4F928371
S1130B908183E984E11030C0E0DB80E02EC0F701FE
S1130BA0EE0FFF1FEE0DFF1DE154FE4F852D90E06B
S1130BB0982F8827820D911D9F7791838083F6015A
S1130BC0EE0FFF1FEE0FFF1FEE0FFF1FE258FE4F49
S1130BD09282818280E011C081E00FC080E00DC06C
S1130BE080E00BC080E009C080E007C080E005C061
S1130BF080E003C080E001C080E029960FB6F8943D
S1130C00DEBF0FBECDBFDF91CF911F910F91FF903B
S1130C10EF90DF90CF90BF90AF909F908F907F9098
S1130C206F905F904F903F902F900895CF93C4E1C1
S1130C3002C0C15019F00EDC8823D9F38091F10170
S1130C40882319F01092F1017FDACF910895FC0105
S1130C5073836283158214820895FC0113821282C5
S1130C60158214820895FC017383628315821482B1
S1130C70578346832087089508950895CF93DF937B
S1130C80EC01988581E089279C81890FB8DBEE818E
S1130C90FF81309709F00995DF91CF9108950F9363
S1130CA01F93CF93DF931F92CDB7DEB78C0181E002
S1130CB08983AE014F5F5F4F60E080E082DAF80124
S1130CC09085890F0F90DF91CF911F910F91089517
S1130CD0FC01808591E098278481890FF8CA0895E2
S1130CE08A30F0F4282F269530E0E82FE170F0E008
S1130CF0CF01880F991FE80FF91FC901880F991FA9
S1130D00DC01A20FB31FAA0FBB1FAE0FBF1FA65952
S1130D10BD4F41E012964C931297FD01718360839D
S1130D20089580910201880F282F269530E0F9015B
S1130D30EE0FFF1FE20FF31FEE0FFF1FE659FD4FEB
S1130D40128264E277E08F5FCBDF80910101880F2C
S1130D50282F269530E0F901EE0FFF1FE20FF31F55
S1130D60EE0FFF1FE659FD4F128266E178E08F5FB8
S1130D70B7DF809100018F3F91F0880F282F2695CF
S1130D8030E0F901EE0FFF1FE20FF31FEE0FFF1F1C
S1130D90E659FD4F12826DE178E08F5FA1CF08958F
S1130DA080910201880F282F269530E0F901EE0F7B
S1130DB0FF1FE20FF31FEE0FFF1FE659FD4F1582D1
S1130DC0C901FC01EE0FFF1FE80FF91FEE0FFF1F13
S1130DD0E659FD4F128280910101880F282F269534
S1130DE030E0F901EE0FFF1FE20FF31FEE0FFF1FBC
S1130DF0E659FD4F1582C901FC01EE0FFF1FE80FF4
S1130E00F91FEE0FFF1FE659FD4F1282809100017A
S1130E108F3FC9F0880F282F269530E0F901EE0F97
S1130E20FF1FE20FF31FEE0FFF1FE659FD4F158260
S1130E30C901FC01EE0FFF1FE80FF91FEE0FFF1FA2
S1130E40E659FD4F12820895ABDF8FEFDFD38CE2BA
S1130E5091E05AD1809102016BE778E0880F40CF8E
S1130E600895809302016093010140930001089565
S1130E70CF93DF93DC011296ED91FC911397309799
S1130E8059F0EC010995E881F9810084F185E02DA0
S1130E90CE01099581E001C080E0DF91CF910895F2
S1130EA0EF92FF920F931F93CF93DF93EC01EC80AB
S1130EB0FD808FEFE81AF80A01E010E08A819B8137
S1130EC0892B11F400E010E0E881F9810480F581B8
S1130ED0E02DCE010995B801680F711DC70142D6F6
S1130EE09D838C83CE01DF91CF911F910F91FF9051
S1130EF0EF900895EF92FF920F931F93CF93DF9398
S1130F00EC01EC80FD8081E0E81AF10801E010E0DA
S1130F108A819B81892B11F400E010E0E881F9813A
S1130F200480F581E02DCE010995B801680F711D8B
S1130F30C70118D69D838C83CE01DF91CF911F9179
S1130F400F91FF90EF900895CF92DF92EF92FF926E
S1130F500F931F93CF93DF93CDB7DEB727970FB6C9
S1130F60F894DEBF0FBECDBF8C016B01DC0112967D
S1130F708D919C911397892B11F11496ED90FC900F
S1130F801597FF24ED91FC910480F581E02DC801B3
S1130F900995282F30E0E216F30689F487E0E3E0B0
S1130FA0F1E0DE01119601900D928A95E1F720E0BF
S1130FB048E0BE016F5F7F4FC601C8D009C0D801A9
S1130FC0ED91FC910190F081E02DB601C8010995E5
S1130FD027960FB6F894DEBF0FBECDBFDF91CF9139
S1130FE01F910F91FF90EF90DF90CF900895CF93D2
S1130FF0DF93CDB7DEB729970FB6F894DEBF0FBEE7
S1131000CDBFBE016F5F7F4F8091680290916902EE
S11310109BDF1986CE010196F0D229960FB6F8947B
S1131020DEBF0FBECDBFDF91CF91089580916802DE
S11310309091690235DFDBCF089580916802909129
S1131040690258DFD4CF0895CF93DF93A09168024B
S1131050B0916902C1E0D0E012968D919C911397F2
S1131060892B11F4C0E0D0E0ED91FC91119704803C
S1131070F581E02DCD010995C80FD11DCD2B51F07F
S113108050DE8AE091E0B9D288EE93E03DD0AFDF44
S113109081E001C080E0DF91CF9108950F931F9309
S11310A0CF93DF93EC018A819B81892B89F00C819A
S11310B01D811127E881F9810480F581E02DCE019D
S11310C0099590E00817190719F4CE01D1DE07C07D
S11310D0E881F9810280F381E02DCE010995E88150
S11310E0F9810084F185E02DCE010995DF91CF913E
S11310F01F910F91089580E089D2809168029091A8
S11311006902CCDF4DCE0895009769F020E030E00D
S1131110EFE3FCE93197F1F700C00000265F3F4F91
S113112028173907A8F30895CF93DF93EC01905162
S11311308F3F9F4E18F480E090E0DCD281E0C1152F
S1131140D04108F480E0DF91CF9108950F931F936D
S1131150CF93DF938C014423B1F0FB018081F8012C
S11311608083FB0180818823A1F0D80111963196F8
S113117090E006C0EF0131913D933881332349F06B
S11311809F5F9413F7CF222321F0F801E40FF11DA0
S11311901082DF91CF911F910F9108959BB384E04A
S11311A098279BBB9BB389278BBB08959BB39E7FDA
S11311B0892B8BBB9BB382E098279BBB9BB389276E
S11311C08BBB0895AF92BF92CF92DF92EF92FF92C2
S11311D00F931F93E82F2091880230918902409148
S11311E08A0250918B0260918C0270918D028091E1
S11311F08E0290918F0201E0ACD5A22EB32EC42EA4
S1131200D52EE62EF72E082F192F2E2F30E040E092
S113121050E060E070E080E090E0D2D52093880256
S11312203093890240938A0250938B0260938C021C
S113123070938D0280938E0290938F028E2FB6DF6F
S11312401F910F91FF90EF90DF90CF90BF90AF90E0
S11312500895AF92BF92CF92DF92EF92FF920F93D5
S11312601F93CF93DF93E82F209188023091890256
S113127040918A0250918B0260918C0270918D0290
S113128080918E0290918F0208E063D5A22EB32E36
S1131290C42ED52EE62EF72E082F192F2E2F30E030
S11312A040E050E060E070E080E090E089D5209379
S11312B088023093890240938A0250938B02609390
S11312C08C0270938D0280938E0290938F02C7E0FC
S11312D0D0E00E2F10E0C8010C2E02C09595879522
S11312E00A94E2F7817062DF2197A8F7DF91CF912A
S11312F01F910F91FF90EF90DF90CF90BF90AF9030
S113130008957F928F929F92AF92BF92CF92DF9275
S1131310EF92FF920F931F93CF93DF93822E932E1E
S1131320A42EB52EC62ED72E082F192F209388024F
S11313303093890240938A0250938B0260938C020B
S113134070938D0280938E0290938F02CFE3D0E04E
S1131350EE24E394F12C77247394F7010C2E02C04D
S1131360EE0FFF1F0A94E2F79F2F990F990B282D78
S11313702E23392D3F23492F4A21592F5B21692FD1
S11313806C21792F7D21E72D892F80239123A0E0E3
S113139020D509F4E0E08E2F09DF2197F0F6DF91E4
S11313A0CF911F910F91FF90EF90DF90CF90BF905E
S11313B0AF909F908F907F900895209188023091F4
S11313C0890240918A0250918B0260918C02709143
S11313D08D0280918E0290918F0293DFDFCE08956B
S11313E038DFDCCE0895881F8827881F0895FC0104
S11313F0908160FB97F990830895CF93DF93CDB7E5
S1131400DEB7C554D1090FB6F894DEBF0FBECDBF09
S1131410E82FEF77F0E0EA30F105A9F0E132F105C9
S113142018F48078809510C0E136F10528F0EB3788
S1131430F10508F036967797EC0FFD1FB097E4910D
S113144080788E2701C080E0CB5BDF4F0FB6F89425
S1131450DEBF0FBECDBFDF91CF910895CEDFC0CFE9
S11314600895805DFBCF08952F923F924F925F9233
S11314706F927F928F929F92AF92BF92CF92DF92A0
S1131480EF92FF920F931F93CF93DF9300D01F929D
S1131490CDB7DEB72B833A83342E452E562E672ED6
S11314A0782E892E0FE370D4922E222E222311F04F
S11314B08DE2D4DF2B813A81C901992324F4882752
S11314C09927821B930B6AE070E060D389830F2E07
S11314D0FAE0AF2EF02DB12CC12CD12CE12CF12C43
S11314E000E010E02B813A81432D542D652D762D9B
S11314F0872D982D60D3822F932F0097A9F0AC01EC
S1131500552324F444275527481B590B952F990F2D
S1131510990B00E0242F352F492F592F692F792F4C
S1131520892FA2DF292C280E89819BDF81E0820D7F
S11315300F900F900F90DF91CF911F910F91FF901B
S1131540EF90DF90CF90BF90AF909F908F907F905F
S11315506F905F904F903F902F900895CF93DF93BB
S11315601F92CDB7DEB78983CE01019640DF898112
S113157075DF0F90DF91CF9108950F931F93CF9351
S1131580FC018081882351F08F01C0E067DFCF5FC9
S1131590F801EC0FF11D80818111F8CFCF911F91DB
S11315A00F910895CF9380919002882341F0C0E079
S11315B080E04FDECF5F80919002C817C8F3EEDD64
S11315C0CF910895CF93C82F87E08ABB88EF8BBB58
S11315D0109288021092890210928A0210928B0251
S11315E010928C0210928D0210928E0210928F0231
S11315F0D9DFC0939002CF910895CF93DF93EC018C
S1131600D1DFCE01BADFDF91CF9108959F92AF92DF
S1131610BF92CF92DF92EF92FF920F931F93CF93DB
S1131620DF9390908802A0908902B0908A02C090C3
S11316308B02D0908C02E0908D0250918E02F0903B
S11316408F02A7E0B0E0E0E0F0E0C82FD0E001E0D6
S113165010E09E010E2E02C0359527950A94E2F7FC
S1131660217033270A2E02C0220F331F0A94E2F797
S1131670432F440F440BB8010A2E02C0660F771F94
S11316800A94E2F760957095972F990F990B96221B
S1131690A722B922C922D922E92259239F21922AB9
S11316A0A32AB42AC42AD42AE42A542BF42EF92ACD
S11316B031961896E830F10561F690928802A0926E
S11316C08902B0928A02C0928B02D0928C02E0927C
S11316D08D0250938E02F0928F026FDEDF91CF91D4
S11316E01F910F91FF90EF90DF90CF90BF90AF903C
S11316F09F9008958F929F92AF92BF92CF92DF9264
S1131700EF92FF920F931F93CF93DF938C01CFB788
S1131710F89448DF85E4A2DE88EB9BE0F5DC043630
S11317201105D0F480E09DDE0A301105C8F427C00D
S113173080E03CDDFDCFCFBF44C0C80100E0282FCE
S1131740392F40E050E060E070E080E090E08CDE13
S113175080E69AEED9DCECCF0A30110570F720C090
S1131760480100E0282D392D40E050E060E070E0B1
S113177080E090E079DE80E69AEEC6DCDCCF80E0A3
S113178070DE480100E0282D392D40E050E060E093
S113179070E080E090E068DE80E69AEEB5DCCBCFC6
S11317A080E05FDEC80100E0282F392F40E050E0E0
S11317B060E070E080E090E057DE80E69AEEA4DC22
S11317C0B7CFDF91CF911F910F91FF90EF90DF90F2
S11317D0CF90BF90AF909F908F900895FF920F93FA
S11317E01F93CF93DF93CDB7DEB7A3970FB6F894CB
S11317F0DEBF0FBECDBF88E0E5DE88EE93E084DC7B
S113180010E00BEA812F8170DDDC109F812D112403
S11318108695982F990F890F181301C0BFDC88EEA5
S113182093E072DC1F5F163469F7BCDE80ED97E04D
S11318306BDC00E010E0FF24F3948F2D002E01C038
S1131840880F0A94EAF705DDA9DC88EE93E05CDCF6
S11318500F5F1F4F0830110581F7A4DE80ED97E07C
S113186053DC10E0812FBCDD88EE93E04DDC1F5F7C
S11318701031C1F710E0812F8295807F815FB0DD48
S113188088EE93E041DC1F5F1031A9F78BDE80ED19
S113189097E03ADC81E4E2DD82E4E0DD83E4DEDD4E
S11318A084E4DCDD80ED97E02FDC80ED97E02CDC38
S11318B079DE80E797E128DC88E2D0DD85E6CEDDBD
S11318C088E7CCDD80E7CADD89E2C8DD8DE2C6DDCC
S11318D083E3C4DD80ED97E017DC80ED97E014DC52
S11318E080ED97E011DC80ED97E00EDC5BDE80EDAF
S11318F097E00ADC85E0EBE4F1E0DE015E9601901E
S11319000D928A95E1F789E0E0E5F1E0DE011A96AF
S113191001900D928A95E1F7CE014E962EDE80ED70
S113192097E0F2DB80ED97E0EFDB80ED97E0ECDB16
S1131930CE010A9622DE80ED97E0E6DB80ED97E0AB
S1131940E3DB80ED97E0E0DB80ED97E0DDDB2ADE92
S113195089E0E9E5F1E0DE01119601900D928A95A6
S1131960E1F785E0E2E6F1E0DE01599601900D929F
S11319708A95E1F786E0E7E6F1E0DE01539601900F
S11319800D928A95E1F7CE01019637DE80ED97E05E
S1131990BBDB80ED97E0B8DB80ED97E0B5DBCE01F3
S11319A049962BDE80ED97E0AFDB80ED97E0ACDB72
S11319B080ED97E0A9DBCE0143961FDE80E797E137
S11319C0A3DB85E291E019DE80E797E19DDB8CE201
S11319D091E013DE80E797E197DB84E391E00DDE8D
S11319E080ED97E091DB80E339DD81EEFCDC811151
S11319F003C08DE391E001DE80E797E185DB81E3BD
S1131A002DDD85E3F0DC882319F08DE391E0F5DD2D
S1131A1080E797E179DB80E797E176DBC3DD80E758
S1131A2097E172DB81E68BA361E0CE018396DFDC74
S1131A308BA114DD60E0CE018396D9DC8BA10EDD91
S1131A4061E08BA18BDD60E08BA188DD80E009DDA6
S1131A5083E007DD87E005DD80E797E155DBA2DD64
S1131A6000E02AE338E040E050E060E070E080E02D
S1131A7090E0FADC80E797E147DB80E797E144DB1D
S1131A8083E491E0BADDA3960FB6F894DEBF0FBEEF
S1131A90CDBFDF91CF911F910F91FF90089582CD1B
S1131AA00895CF938DE691E0A8DDC5E08FEFAEDD1C
S1131AB084EF91E029DB80E0A9DD84EF91E024DB71
S1131AC0C150A1F76FDDCF910895CF93DF93CDB7C8
S1131AD0DEB729970FB6F894DEBF0FBECDBF7EDE0A
S1131AE088E070DDDEDF86E791E087DD80ED97E05A
S1131AF00BDB87B3876087BB88B3887F88BB8FEF96
S1131B009FEF0E947A0088EE93E0FEDA80E090E096
S1131B100E947A0080E00E94FF0144DD1C821B8247
S1131B201E821D8285E191E09A83898381E0898701
S1131B308FE49DE098878F839E012F5F3F4F41E0A4
S1131B4060E082E08ED980DA71D8FECF991B79E00B
S1131B5004C0991F961708F0961B881F7A95C9F739
S1131B6080950895AA1BBB1B51E107C0AA1FBB1F88
S1131B70A617B70710F0A61BB70B881F991F5A9515
S1131B80A9F780959095BC01CD01089597FB072E88
S1131B9016F4009406D077FD08D0E4DF07FC05D0E6
S1131BA03EF4909581959F4F0895709561957F4F70
S1131BB00895689401C0E894F92FF12B0AF027C026
S1131BC0A0E0B0E0E5EEFDE093C0092E05941AF420
S1131BD079D0112392F4F0E80F26FFEFE094F0940B
S1131BE000951095B094C094D094A194BF0ACF0AE4
S1131BF0DF0AEF0AFF0A0F0B1F0B13D007FC62D09A
S1131C00CDB7DEB7ECE090C0689401C0E8948F9241
S1131C109F92CF93DF9305D0DF91CF919F908F90C8
S1131C20089588249924F401E401B0E49F93AA2739
S1131C309A158B049C04ED05FE05CF05D007A1077A
S1131C4098F4AD2FDC2FCF2FFE2FE92D982C892E61
S1131C50982F872F762F652F542F432F322F22272B
S1131C60B85031F7BF9127C01B2EBF91BB27220F5D
S1131C70331F441F551F661F771F881F991F881C19
S1131C80991CEE1FFF1FCC1FDD1FAA1FBB1F8A1448
S1131C909B04EC05FD05CE05DF05A007B10748F060
S1131CA08A189B08EC09FD09CE09DF09A00BB10BCA
S1131CB021601A94E1F62EF49401AF01BE01CD0126
S1131CC0000C089560957095809590953095409599
S1131CD0509521953F4F4F4F5F4F6F4F7F4F8F4F21
S1131CE09F4F08952F923F924F925F926F927F92EF
S1131CF08F929F92AF92BF92CF92DF92EF92FF9218
S1131D000F931F93CF93DF93CDB7DEB7CA1BDB0BC3
S1131D100FB6F894DEBF0FBECDBF09942A88398868
S1131D2048885F846E847D848C849B84AA84B9846F
S1131D30C884DF80EE80FD800C811B81AA81B9817B
S1131D40CE0FD11D0FB6F894DEBF0FBECDBFED018F
S1131D5008950F93083090F0982F872F762F652FD2
S1131D60542F432F322F22270850F4CF220F331F32
S1131D70441F551F661F771F881F991F0A95B2F7C6
S1131D800F91089597FB10F8169400080F930830EC
S1131D9098F00850232F342F452F562F672F782F74
S1131DA0892F902DF4CF059497958795779567950E
S1131DB057954795379527950A95AAF70F91089552
S1131DC02A0D3B1D4C1D5D1D6E1D7F1D801F911F27
S1131DD008950024A7FD00942A17300540055005F6
S1131DE060057005800590050895E199FECF9FBBBD
S1111DF08EBBE09A99278DB30895F894FFCF27
S1131DFEFFFFFF43414E43454C0053454C4543546E
S1131E0E000000000068063E064F0627062D063C1D
S1131E1E063D063306746573742D31006C6173745C
S1131E2E2D6C66006973646F7474656400657272F8
S1131E3E6F720054484520454E4400747275650017
S1131E4E7374722D70726E74004C462050524E2074
S1131E5E53006C662034003132333435002D465530
S1111E6E5353454C2D00415243482E2E2E0056
S9030000FC
