S0100000467573736C2D30312E7372656379
S113000068C0000083C0000081C000007FC0000001
S11300107DC000007BC0000079C0000077C00000F4
S113002075C0000073C0000071C000006FC0000004
S11300306DC000006BC0000069C0000067C0000014
S113004065C0000063C0000061C000005FC0000024
S11300505DC000005BC0000059C0000057C0000034
S113006055C0000053C0000051C000004FC0000044
S11300704DC000004BC0000049C0000047C0000054
S113008045C0000043C0000041C00000C80A7F6EA4
S1130090993F00164C2B49400180197E483D6D4B19
S11300A067774C7F6F81C03921639D5D5F733179C0
S11300B03717765312783B325E51711F4F57664C97
S11300C0702A7A5B6B3C36436C0E2008275A2D75D8
S11300D00F0011241FBECFEFD0E1DEBFCDBF11E072
S11300E0A0E0B1E0EEE3FAE000E00BBF02C007904D
S11300F00D92A030B107D9F721E0A0E0B1E001C032
S11301001D92A33FB207E1F700D397C479CF98B308
S11301109E7F892B88BB98B382E0982798BB98B3BD
S1130120892788BB089598B384E0982798BB98B32F
S1130130892788BB0895CF92DF92EF92FF920F93A5
S11301401F93CF93DF937C01CFE0D0E001E010E078
S1130150DD24D394C12C98010C2E02C0220F331F2E
S11301600A94E2F72E213F218D2D232B09F48C2DA7
S1130170CEDF219780F7D7DFDF91CF911F910F91C9
S1130180FF90EF90DF90CF900895803C58F4982F23
S1130190947F943B49F0807F803841F0803A41F06D
S11301A082E0089581E0089581E0089583E0089550
S11301B088E00895CF92DF92EF92FF920F931F93FE
S11301C0CF93DF93D82FD62E7A01811107C0FA017D
S11301D0808181110AC08FEF9FEF62C0FA01808194
S11301E0811102C0D15001C0D0E000E014E0CC2461
S11301F0CA9429C0D150C80118D4C82FC801019687
S113020014D42C2F30E0322F22278901082BC80167
S1130210DCD0882379F001C0DC2DF70180818823AC
S113022031F08D2F90E091958195910939C085E643
S113023090E0F7D1D11107C0F7018081882319F02C
S113024081E090E0EED1D111D5CFF7018081811109
S113025015C0DD2079F0E8012E96DA94DD2061F0F6
S1130260DA94CE01E2D391DFC80FD11DD110F8CFBB
S1130270CE0116C0C80114C0CE0112C0C801D5D326
S1130280C82FC8010196D1D32C2F30E0322F22275A
S11302908901082BC80199D08111BECFDC2DD3CFA1
S11302A0DF91CF911F910F91FF90EF90DF90CF904E
S11302B00895CF92DF92EF92FF920F931F93CF9303
S11302C0DF93C0914001EC2EF12CF701EE0FFF1FDC
S11302D0EE0FFF1FEE0FFF1FE050FF4F80818823BA
S11302E081F1F701EE0FFF1FEE0FFF1FEE0FFF1F4F
S11302F0E050FF4FC180D2808601055F1F4FE701A8
S1130300CC0FDD1FCC0FDD1FCC0FDD1FCB5FDE4F0D
S11303108EE0C80ED11CC80188D389930F5F1F4F8C
S11303200C151D05C1F7F701EE0FFF1FEE0FFF1FA0
S1130330EE0FFF1FE050FF4F818192810E96928352
S11303408183DF91CF911F910F91FF90EF90DF9008
S1130350CF9008950F931F93CF93DF931F92CDB740
S1130360DEB700E011E010924001F80113828083AF
S11303701982AE014F5F5F4F60E01CDFF80192838A
S11303808183109271011092720181E08093730154
S113039080E090E890934201809341018ADF0F90BE
S11303A0DF91CF911F910F910895009769F020E09C
S11303B030E0EFE3FCE93197F1F700C000002C597D
S11303C03F4F28173907A8F30895CF93DF93EC0123
S11303D090518F3F9F4E18F480E090E022D181E04D
S11303E0C115D04108F480E0DF91CF9108959BB30B
S11303F084E098279BBB9BB389278BBB08959BB351
S113040082E098279BBB9BB389278BBB08959BB342
S11304109E7F892B8BBBF3CF0895AF92BF92CF926F
S1130420DF92EF92FF920F931F93CF93DF93E82F06
S11304302091EA013091EB014091EC015091ED01E2
S11304406091EE017091EF018091F0019091F101C2
S113045008E0ABD2A22EB32EC42ED52EE62EF72E54
S1130460082F192F2E2F30E040E050E060E070E0BC
S113047080E090E0D1D22093EA013093EB014093E5
S1130480EC015093ED016093EE017093EF018093C2
S1130490F0019093F101C7E0D0E00E2F10E0C80105
S11304A00C2E02C0959587950A94E2F78170AFDF10
S11304B02197A8F7DF91CF911F910F91FF90EF90B3
S11304C0DF90CF90BF90AF900895A7DF90CF0895AD
S11304D0E82FEF77F0E0EA30F105A1F0E132F10521
S11304E018F4807880950895E136F10528F0EB370B
S11304F0F10508F03696B097E559FF4FE4918078FE
S11305008E27089580E00895E3DFDFCF08958A30D1
S113051018F080E4F9CF0895805DF6CF08952F9206
S11305203F924F925F926F927F928F929F92AF927F
S1130530BF92CF92DF92EF92FF920F931F93CF93CC
S1130540DF93D22FC32F242E352E462E572E682EFE
S1130550792E0FE345D2922E822E222311F08DE2C2
S1130560D3DF0F2EFAE0AF2EF02DB12CC12CD12CFD
S1130570E12CF12C00E010E02D2F3C2F422D532DC7
S1130580642D752D862D972D42D1422F532F411561
S11305905105A9F0BA01772324F466277727641B51
S11305A0750B972F990F990B00E0262F372F492FA2
S11305B0592F692F792F892FB2DF892C880E4D2F5F
S11305C05C2FCA01992324F488279927841B950B4F
S11305D06AE070E007D19BDF81E0880DDF91CF9165
S11305E01F910F91FF90EF90DF90CF90BF90AF904D
S11305F09F908F907F906F905F904F903F902F903F
S11306000895CF938091F201882341F0C0E080E007
S113061004DFCF5F8091F201C817C8F3E8DECF9101
S113062008958F929F92AF92BF92CF92DF92EF92F2
S1130630FF920F931F93CF93DF938C01CFB7F8945E
S1130640E0DF85E461DF88EB9BE0AFDE0436110573
S1130650D0F480E05CDF0A301105C8F427C080E0E4
S1130660D6DEFDCFCFBF44C0C80100E0282F392F0C
S113067040E050E060E070E080E090E050DF80E631
S11306809AEE93DEECCF0A30110570F720C04801D2
S113069000E0282D392D40E050E060E070E080E07B
S11306A090E03DDF80E69AEE80DEDCCF80E02FDF55
S11306B0480100E0282D392D40E050E060E070E072
S11306C080E090E02CDF80E69AEE6FDECBCF80E016
S11306D01EDFC80100E0282F392F40E050E060E021
S11306E070E080E090E01BDF80E69AEE5EDEB7CF3C
S11306F0DF91CF911F910F91FF90EF90DF90CF90FA
S1130700BF90AF909F908F90089587B3876087BB09
S113071088B3887F88BB8FEF9FEF0DDD88EE93E071
S113072044DE80E090E007DD80E014DE0F2EF0ED83
S1130730EF2EF02D0F2EF7E0FF2EF02D01E010E04C
S1130740CE2DDF2D80E090E0F6DCCE012EDE81E0C0
S113075091E0F1DCCE0129DE83E891E0ECDCCE010E
S113076024DE87EC91E0E7DCCE011FDE8FEE91E022
S1130770E2DCCE011ADE8FEF91E0DDDCCE0115DE86
S1130780C85CD109C03921E0D207E1F680E090E0ED
S1130790D2DC8E2D9F2D09DEC0E0D0E0C8010C2EE6
S11307A002C0880F991F0A94E2F7C5DC84E195E042
S11307B0FCDD2196CD30D10589F7C2CFAA1BBB1B26
S11307C051E107C0AA1FBB1FA617B70710F0A61B4D
S11307D0B70B881F991F5A95A9F780959095BC016E
S11307E0CD01089597FB072E16F4009406D077FDEB
S11307F008D0E4DF07FC05D03EF4909581959F4F27
S11308000895709561957F4F0895689401C0E894A8
S1130810F92FF12B0AF027C0A0E0B0E0E1E1F4E009
S113082093C0092E05941AF479D0112392F4F0E8B8
S11308300F26FFEFE094F09400951095B094C094C7
S1130840D094A194BF0ACF0ADF0AEF0AFF0A0F0B64
S11308501F0B13D007FC62D0CDB7DEB7ECE090C01D
S1130860689401C0E8948F929F92CF93DF9305D050
S1130870DF91CF919F908F90089588249924F4015B
S1130880E401B0E49F93AA279A158B049C04ED0518
S1130890FE05CF05D007A10798F4AD2FDC2FCF2F8D
S11308A0FE2FE92D982C892E982F872F762F652FD0
S11308B0542F432F322F2227B85031F7BF9127C02E
S11308C01B2EBF91BB27220F331F441F551F661FCA
S11308D0771F881F991F881C991CEE1FFF1FCC1FB0
S11308E0DD1FAA1FBB1F8A149B04EC05FD05CE0562
S11308F0DF05A007B10748F08A189B08EC09FD0939
S1130900CE09DF09A00BB10B21601A94E1F62EF495
S11309109401AF01BE01CD01000C0895609570955E
S11309208095909530954095509521953F4F4F4F28
S11309305F4F6F4F7F4F8F4F9F4F08952F923F927E
S11309404F925F926F927F928F929F92AF92BF92DB
S1130950CF92DF92EF92FF920F931F93CF93DF9387
S1130960CDB7DEB7CA1BDB0B0FB6F894DEBF0FBEE4
S1130970CDBF09942A88398848885F846E847D8431
S11309808C849B84AA84B984C884DF80EE80FD8033
S11309900C811B81AA81B981CE0FD11D0FB6F894A9
S11309A0DEBF0FBECDBFED0108950F93083090F068
S11309B0982F872F762F652F542F432F322F2227DE
S11309C00850F4CF220F331F441F551F661F771F93
S11309D0881F991F0A95B2F70F91089597FB10F895
S11309E0169400080F93083098F00850232F342FE2
S11309F0452F562F672F782F892F902DF4CF0594EC
S1130A009795879577956795579547953795279542
S1130A100A95AAF70F9108952A0D3B1D4C1D5D1DE3
S1130A206E1D7F1D801F911F0895E199FECF9FBB0E
S1110A308EBBE09A99278DB30895F894FFCFFA
S9030000FC
